{
  "_format": "hh-sol-artifact-1",
  "contractName": "CreditScore",
  "sourceName": "contracts/CreditScore.sol",
  "abi": [
    {
      "inputs": [],
      "stateMutability": "nonpayable",
      "type": "constructor"
    },
    {
      "inputs": [],
      "name": "calculateCreditScore",
      "outputs": [
        {
          "internalType": "uint256",
          "name": "",
          "type": "uint256"
        }
      ],
      "stateMutability": "view",
      "type": "function"
    },
    {
      "inputs": [],
      "name": "collateralRatio",
      "outputs": [
        {
          "internalType": "uint256",
          "name": "",
          "type": "uint256"
        }
      ],
      "stateMutability": "view",
      "type": "function"
    },
    {
      "inputs": [],
      "name": "loanDefaults",
      "outputs": [
        {
          "internalType": "uint256",
          "name": "",
          "type": "uint256"
        }
      ],
      "stateMutability": "view",
      "type": "function"
    },
    {
      "inputs": [],
      "name": "repaymentHistory",
      "outputs": [
        {
          "internalType": "uint256",
          "name": "",
          "type": "uint256"
        }
      ],
      "stateMutability": "view",
      "type": "function"
    },
    {
      "inputs": [],
      "name": "timeInDeFi",
      "outputs": [
        {
          "internalType": "uint256",
          "name": "",
          "type": "uint256"
        }
      ],
      "stateMutability": "view",
      "type": "function"
    },
    {
      "inputs": [],
      "name": "transactionVolume",
      "outputs": [
        {
          "internalType": "uint256",
          "name": "",
          "type": "uint256"
        }
      ],
      "stateMutability": "view",
      "type": "function"
    },
    {
      "inputs": [
        {
          "internalType": "uint256",
          "name": "_repaymentHistory",
          "type": "uint256"
        },
        {
          "internalType": "uint256",
          "name": "_walletBalance",
          "type": "uint256"
        },
        {
          "internalType": "uint256",
          "name": "_collateralRatio",
          "type": "uint256"
        },
        {
          "internalType": "uint256",
          "name": "_transactionVolume",
          "type": "uint256"
        },
        {
          "internalType": "uint256",
          "name": "_loanDefaults",
          "type": "uint256"
        },
        {
          "internalType": "uint256",
          "name": "_timeInDeFi",
          "type": "uint256"
        }
      ],
      "name": "updateScore",
      "outputs": [],
      "stateMutability": "nonpayable",
      "type": "function"
    },
    {
      "inputs": [],
      "name": "walletBalance",
      "outputs": [
        {
          "internalType": "uint256",
          "name": "",
          "type": "uint256"
        }
      ],
      "stateMutability": "view",
      "type": "function"
    }
  ],
  "bytecode": "0x6080604052348015600e575f5ffd5b505f80805560018190556002819055600381905560048190556005556102b1806100375f395ff3fe608060405234801561000f575f5ffd5b5060043610610085575f3560e01c8063b4eae1cb11610058578063b4eae1cb146100bd578063c46b5f0b146100c6578063cd0a314b146100f2578063f06d6cf0146100fb575f5ffd5b806302a0cbef1461008957806312449cce146100a35780632c9f5e93146100ac578063587f7407146100b5575b5f5ffd5b6100915f5481565b60405190815260200160405180910390f35b61009160055481565b61009160035481565b610091610104565b61009160025481565b6100f06100d43660046101df565b5f95909555600193909355600291909155600355600455600555565b005b61009160015481565b61009160045481565b5f5f606460055460056101179190610232565b6101219190610249565b6064600454600a6101329190610232565b61013c9190610249565b6064600354600a61014d9190610232565b6101579190610249565b6064600254600f6101689190610232565b6101729190610249565b606460015460146101839190610232565b61018d9190610249565b60645f54602861019d9190610232565b6101a79190610249565b6101b19190610268565b6101bb9190610268565b6101c59190610268565b6101cf9190610268565b6101d99190610268565b92915050565b5f5f5f5f5f5f60c087890312156101f4575f5ffd5b505084359660208601359650604086013595606081013595506080810135945060a0013592509050565b634e487b7160e01b5f52601160045260245ffd5b80820281158282048414176101d9576101d961021e565b5f8261026357634e487b7160e01b5f52601260045260245ffd5b500490565b808201808211156101d9576101d961021e56fea2646970667358221220e9fad94a691f01b8e833eb68f0c937c2ecc8dd8e6393b713fccfbeea75f4af9664736f6c634300081b0033",
  "linkReferences": {},
  "deployedLinkReferences": {}
}