{
  "_format": "hh-sol-artifact-1",
  "contractName": "LendingPlatform",
  "sourceName": "contracts/LendingPlatform.sol",
  "abi": [
    {
      "inputs": [
        {
          "internalType": "address",
          "name": "_creditScoreAddress",
          "type": "address"
        },
        {
          "internalType": "address",
          "name": "_liquidityPoolAddress",
          "type": "address"
        },
        {
          "internalType": "address",
          "name": "_priceFeedAddress",
          "type": "address"
        }
      ],
      "stateMutability": "nonpayable",
      "type": "constructor"
    },
    {
      "anonymous": false,
      "inputs": [
        {
          "indexed": true,
          "internalType": "address",
          "name": "borrower",
          "type": "address"
        },
        {
          "indexed": false,
          "internalType": "uint256",
          "name": "amount",
          "type": "uint256"
        }
      ],
      "name": "LoanGiven",
      "type": "event"
    },
    {
      "anonymous": false,
      "inputs": [
        {
          "indexed": true,
          "internalType": "address",
          "name": "borrower",
          "type": "address"
        },
        {
          "indexed": false,
          "internalType": "uint256",
          "name": "amount",
          "type": "uint256"
        }
      ],
      "name": "LoanRepaid",
      "type": "event"
    },
    {
      "anonymous": false,
      "inputs": [
        {
          "indexed": true,
          "internalType": "address",
          "name": "borrower",
          "type": "address"
        },
        {
          "indexed": false,
          "internalType": "uint256",
          "name": "amount",
          "type": "uint256"
        }
      ],
      "name": "LoanTaken",
      "type": "event"
    },
    {
      "inputs": [
        {
          "internalType": "address",
          "name": "borrower",
          "type": "address"
        }
      ],
      "name": "calculateInterest",
      "outputs": [
        {
          "internalType": "uint256",
          "name": "",
          "type": "uint256"
        }
      ],
      "stateMutability": "view",
      "type": "function"
    },
    {
      "inputs": [
        {
          "internalType": "address",
          "name": "",
          "type": "address"
        }
      ],
      "name": "collateralBalance",
      "outputs": [
        {
          "internalType": "uint256",
          "name": "",
          "type": "uint256"
        }
      ],
      "stateMutability": "view",
      "type": "function"
    },
    {
      "inputs": [],
      "name": "creditScoreContract",
      "outputs": [
        {
          "internalType": "contract CreditScore",
          "name": "",
          "type": "address"
        }
      ],
      "stateMutability": "view",
      "type": "function"
    },
    {
      "inputs": [],
      "name": "getLatestPrice",
      "outputs": [
        {
          "internalType": "int256",
          "name": "",
          "type": "int256"
        }
      ],
      "stateMutability": "view",
      "type": "function"
    },
    {
      "inputs": [],
      "name": "interestRate",
      "outputs": [
        {
          "internalType": "uint256",
          "name": "",
          "type": "uint256"
        }
      ],
      "stateMutability": "view",
      "type": "function"
    },
    {
      "inputs": [],
      "name": "liquidityPool",
      "outputs": [
        {
          "internalType": "contract LiquidityPool",
          "name": "",
          "type": "address"
        }
      ],
      "stateMutability": "view",
      "type": "function"
    },
    {
      "inputs": [
        {
          "internalType": "address",
          "name": "",
          "type": "address"
        }
      ],
      "name": "loanBalance",
      "outputs": [
        {
          "internalType": "uint256",
          "name": "",
          "type": "uint256"
        }
      ],
      "stateMutability": "view",
      "type": "function"
    },
    {
      "inputs": [],
      "name": "provideCollateral",
      "outputs": [],
      "stateMutability": "payable",
      "type": "function"
    },
    {
      "inputs": [
        {
          "internalType": "uint256",
          "name": "repayAmount",
          "type": "uint256"
        }
      ],
      "name": "repayLoan",
      "outputs": [],
      "stateMutability": "nonpayable",
      "type": "function"
    },
    {
      "inputs": [
        {
          "internalType": "uint256",
          "name": "loanAmount",
          "type": "uint256"
        }
      ],
      "name": "requestLoan",
      "outputs": [],
      "stateMutability": "nonpayable",
      "type": "function"
    },
    {
      "inputs": [
        {
          "internalType": "uint256",
          "name": "amount",
          "type": "uint256"
        }
      ],
      "name": "withdrawCollateral",
      "outputs": [],
      "stateMutability": "nonpayable",
      "type": "function"
    }
  ],
  "bytecode": "0x6080604052600580553480156012575f5ffd5b506040516107a23803806107a2833981016040819052602f916089565b5f80546001600160a01b039485166001600160a01b03199182161790915560018054938516938216939093179092556002805491909316911617905560c2565b80516001600160a01b03811681146084575f5ffd5b919050565b5f5f5f60608486031215609a575f5ffd5b60a184606f565b925060ad60208501606f565b915060b960408501606f565b90509250925092565b6106d3806100cf5f395ff3fe60806040526004361061009a575f3560e01c80638d5d3429116100625780638d5d3429146101445780638e15f473146101635780639aae66f914610177578063a1bf2840146101a2578063ab7b1c89146101cd578063e11932cf146101ec575f5ffd5b806303a42b6f1461009e5780635a7882d5146100d95780636112fe2e146100e3578063665a11ca146101025780637c3a00fd14610121575b5f5ffd5b3480156100a9575f5ffd5b505f546100bc906001600160a01b031681565b6040516001600160a01b0390911681526020015b60405180910390f35b6100e161020b565b005b3480156100ee575f5ffd5b506100e16100fd36600461057e565b610230565b34801561010d575f5ffd5b506001546100bc906001600160a01b031681565b34801561012c575f5ffd5b5061013660055481565b6040519081526020016100d0565b34801561014f575f5ffd5b506100e161015e36600461057e565b61035a565b34801561016e575f5ffd5b506101366103a4565b348015610182575f5ffd5b50610136610191366004610595565b60046020525f908152604090205481565b3480156101ad575f5ffd5b506101366101bc366004610595565b60036020525f908152604090205481565b3480156101d8575f5ffd5b506100e16101e736600461057e565b610425565b3480156101f7575f5ffd5b50610136610206366004610595565b610545565b335f90815260036020526040812080543492906102299084906105cf565b9091555050565b335f908152600360205260409020548111156102935760405162461bcd60e51b815260206004820152601f60248201527f496e73756666696369656e7420636f6c6c61746572616c2062616c616e63650060448201526064015b60405180910390fd5b335f90815260046020526040902054156103095760405162461bcd60e51b815260206004820152603160248201527f43616e6e6f7420776974686472617720636f6c6c61746572616c2077697468206044820152706f75747374616e64696e67206c6f616e7360781b606482015260840161028a565b335f90815260036020526040812080548392906103279084906105e8565b9091555050604051339082156108fc029083905f818181858888f19350505050158015610356573d5f5f3e3d5ffd5b5050565b60405162461bcd60e51b815260206004820152601960248201527f496e73756666696369656e74206372656469742073636f72650000000000000060448201525f9060640161028a565b5f5f60025f9054906101000a90046001600160a01b03166001600160a01b031663feaf968c6040518163ffffffff1660e01b815260040160a060405180830381865afa1580156103f6573d5f5f3e3d5ffd5b505050506040513d601f19601f8201168201806040525081019061041a9190610630565b509195945050505050565b335f9081526004602052604090205481111561048d5760405162461bcd60e51b815260206004820152602160248201527f526570617920616d6f756e742065786365656473206c6f616e2062616c616e636044820152606560f81b606482015260840161028a565b335f90815260046020526040812080548392906104ab9084906105e8565b909155505060015460408051630d0e30db60e41b815290516001600160a01b039092169163d0e30db09184916004808301925f92919082900301818588803b1580156104f5575f5ffd5b505af1158015610507573d5f5f3e3d5ffd5b50506040518481523393507fc200a1f31dd659e356e0f112c82558e25f49f7b0f84438691cd96f5cb35588239250602001905060405180910390a250565b6001600160a01b0381165f9081526004602052604081205460055460649061056d90836105fb565b610577919061067e565b9392505050565b5f6020828403121561058e575f5ffd5b5035919050565b5f602082840312156105a5575f5ffd5b81356001600160a01b0381168114610577575f5ffd5b634e487b7160e01b5f52601160045260245ffd5b808201808211156105e2576105e26105bb565b92915050565b818103818111156105e2576105e26105bb565b80820281158282048414176105e2576105e26105bb565b805169ffffffffffffffffffff8116811461062b575f5ffd5b919050565b5f5f5f5f5f60a08688031215610644575f5ffd5b61064d86610612565b6020870151604088015160608901519297509095509350915061067260808701610612565b90509295509295909350565b5f8261069857634e487b7160e01b5f52601260045260245ffd5b50049056fea2646970667358221220c1170ae527bc79a5e82172af8c99b56418c24f574ae0723022be30012678dcab64736f6c634300081b0033",
  "linkReferences": {},
  "deployedLinkReferences": {}
}